:020000040000FA
:020000008E2848
:040002000034003492
:08000800BB00030EBA000B1946
:100010000D280C1B13288C1A23280B110630810085
:100020006620A10A4F280C131E081F1D1A28A900BC
:100030001F111C28A8001F15000000000000000070
:1000400000009F144F281A08B9002C303902031DF4
:1000500030283508AC003608AB003708AA004F2816
:1000600000303902031D3B283508AF003608AE00CA
:100070003708AD004F2838088207412846284B280A
:10008000B80130303902B500B80A4F283030390293
:10009000B600B80A4F2830303902B700B80A3A0E15
:1000A0008300BB0E3B0E09000F39820708346B3406
:1000B000243421344334113410342B3400340134CB
:1000C000FF34FF34FF34FF34FF34FF34860121084E
:1000D0008207702875287A287F2884288928A1011A
:1000E0002D0854208800061408002E08542088008B
:1000F000861408002F0854208800061508002A08D6
:1001000054208800861508002B0854208800061605
:0C01100008002C08542088008616080007
:04011C00031783162C
:100120008901FF3088000313FF30850086018801B4
:1001300081308100E0308B000C178C161813981654
:1001400018121815193099009F139F121F1283124D
:1001500041309F00063081009817181318169F141D
:10016000AA01AB01AC01AD01AE01AF01A101A90132
:10017000A801A001B801B501B601B7012808B10076
:10018000F3203308A4003208A3003408A200290891
:10019000B100F3203308A7003208A6003408A500F8
:1001A000D220BE280C1E080020088207DF28E12884
:1001B000E328E528E728E928EB28ED28A001240812
:1001C000EF282308EF282208EF282C30F0282708F2
:1001D000EF282608EF282508EF280A30F028303EBF
:1001E0009900A00A0800B301B201B40164303102E1
:1001F000031CFD28B30AB100F6280A303102031CA3
:100200000429B20AB100FD2801303102031C0800A4
:06021000B40AB10004294C
:02400E00D420BC
:02401000FF3F70
:00000001FF
