:020000040000FA
:02000000902846
:040002000034003492
:08000800BB00030EBA000B1946
:100010000D280C1B13288C1A23280B110630810085
:100020006820A10A51280C131E081F1D1A28A900B8
:100030001F111C28A8001F15000000000000000070
:1000400000009F1451281A08B9002C303902031DF2
:100050003128B8013508AC003608AB003708AA00D3
:10006000512800303902031D3D28B8013508AF0082
:100070003608AE003708AD005128380882074328FB
:1000800048284D28B80130303902B500B80A512847
:1000900030303902B600B80A512830303902B70082
:1000A000B80A3A0E8300BB0E3B0E09000F398207D7
:1000B00008346B34243421344334113410342B3459
:1000C00000340134FF34FF34FF34FF34FF34FF3495
:1000D000860121088207722877287C2881288628B3
:1000E0008B28A1012D0856208800061408002E0830
:1000F00056208800861408002F0856208800061510
:1001000008002A0856208800861508002B0856206B
:100110008800061608002C0856208800861608005D
:10012000031783168901FF3088000313FF30850011
:100130008601880181308100E0308B000C178C161D
:100140001813981618121815193099009F139F123A
:100150001F12831241309F00063081009817181338
:1001600018169F14AA01AB01AC01AD01AE01AF019D
:10017000A101A901A801A001B801B501B601B7010B
:100180002808B100F5203308A4003208A300340881
:10019000A2002908B100F5203308A7003208A60004
:1001A0003408A500D420C0280C1E080020088207AF
:1001B000E128E328E528E728E928EB28ED28EF28BF
:1001C000A0012408F1282308F1282208F1282C3066
:1001D000F2282708F1282608F1282508F1280A30F6
:1001E000F228303E9900A00A0800B301B201B40120
:1001F00064303102031CFF28B30AB100F8280A302A
:100200003102031C0629B20AB100FF280130310275
:0A021000031C0800B40AB10006291F
:02400E00D420BC
:02401000FF3F70
:00000001FF
