:020000040000FA
:020000005C287A
:040002000034003492
:08000800B300030EB2000B1956
:100010000D280C1B13288C1A23280B110630810085
:100020003420A00A23280C131E081F1D1A28A6001E
:100030001F111C28A5001F15000000000000000073
:1000400000009F142328320E8300B30E330E0900E4
:100050000F39820708346B3424342134433411348B
:1000600010342B34003401348601200882073E28E6
:10007000432848284D2852285728A0012A0828201C
:100080008800061408002B08282088008614080021
:100090002C0828208800061508002708282088003A
:1000A0008615080028082820880006160800290858
:0800B0002820880086160800D4
:0800B800031783168901FF30D4
:1000C00088000313FF30850086018801813081009C
:1000D000E0308B000C1718139816181218151730EB
:1000E00099009F139F121F12831241309F00063008
:1000F00081009817181318169F14A701A801A901C9
:10010000AA01AB01AC01A001A601A5012508AE0022
:1001100099203008A9002F08A8003108A700260858
:10012000AE0099203008AC002F08AB003108AA00BF
:100130008628B001AF01B10164302E02031CA32850
:10014000B00AAE009C280A302E02031CAA28AF0A6F
:10015000AE00A32801302E02031C0800B10AAE0035
:02016000AA28CB
:02400E00D420BC
:02401000FF3F70
:00000001FF
