:020000040000FA
:020000005C287A
:040002000034003492
:08000800B600030EB5000B1950
:100010000D280C1B13288C1A23280B110630810085
:100020003420A10A23280C131E081F1D1A28A9001A
:100030001F111C28A8001F15000000000000000070
:1000400000009F142328350E8300B60E360E0900DB
:100050000F39820708346B3424342134433411348B
:1000600010342B34003401348601210882073E28E5
:10007000432848284D2852285728A1012D08282018
:100080008800061408002E0828208800861408001E
:100090002F0828208800061508002A082820880034
:1000A000861508002B0828208800061608002C0852
:0800B0002820880086160800D4
:0800B800031783168901FF30D4
:1000C00088000313FF30850086018801813081009C
:1000D000E0308B000C1718139816181218151730EB
:1000E00099009F139F121F12831241309F00063008
:1000F00081009817181318169F14AA01AB01AC01C0
:10010000AD01AE01AF01A101A901A801A00128081C
:10011000B100D4203308AC00A4003208AB00A30027
:100120003408AA00A2002908B100D4203308AF0087
:10013000A7003208AE00A6003408AD00A500A1203B
:1001400087280C1E080020088207AE28B328B8288C
:10015000BD28C128C628CB28D028A0012408303EBD
:100160009900A00A08002308303E9900A00A080060
:100170002208303E9900A00A08002C309900A00AFD
:1001800008002708303E9900A00A08002608303EE3
:100190009900A00A08002508303E9900A00A08002E
:1001A0000A309900A00A0800B301B201B40164301A
:1001B0003102031CDE28B30AB100D7280A3031020D
:1001C000031CE528B20AB100DE2801303102031C0D
:0801D0000800B40AB100E528A3
:02400E00D420BC
:02401000FF3F70
:00000001FF
